:0C00000021C0FECFFDCFFCCFFBCFFACF1C
:10000C00F9CFF8CFF7CFF6CFF5CFF4CFF3CFF2CFC0
:10001C00F1CFF0CFEFCFEECFEDCFECCFEBCF112276
:10002C002112231C390FAA2A000002000200320000
:10003C000200040034000000F894EE27ECBBF1E061
:10004C00FBBFEBBFE5BF8DE0A2E0BB27ED938A952C
:10005C00E9F780E092E0A0E6ED930197E9F7E6E39B
:10006C00F0E085919591009761F0A591B59105907F
:10007C001590BF01F00105900D920197E1F7FB017E
:10008C00F0CFEFE5EDBFE2E0EEBFC0EED0E000C098
:10009C00EFEFEABBE0E0EBBBE7BBEFEFE8BBE4BBA9
:1000AC00E0E0E5BBE1BBEFEFE2BBE0E0E3BFE2BFCA
:1000BC00ECBFEFBDEEBDEDBDECBDE7BDE6BDEBBDF0
:1000CC00EABDE9BDE8BDE2BDE5BDE4BDE3BDE9BF08
:1000DC00E5BFE4BFEAB9E0E8E8B9E0E0E0BFE6B9C3
:1000EC00EDB9E6BF08D024D040D05CD078D0A6D0F3
:1000FC00BCD0F8CFFFCFE6D0C9F0869902C0E89407
:10010C0001C0689426F826FC02C027FC01C005C07B
:10011C00EEE2F0E0DAD0A0E0DFD026FE02C027FE4F
:10012C0001C001C0DED026FA27F801C0DDD0089549
:10013C00C9D0C9F0809902C0E89401C0689420F835
:10014C0020FC02C021FC01C005C0EFE2F0E0BDD0F4
:10015C00A1E0C2D020FE02C021FE01C001C0C1D06E
:10016C0020FA21F801C0C0D00895ACD0C9F0829912
:10017C0002C0E89401C0689422F822FC02C023FC5F
:10018C0001C005C0E0E3F0E0A0D0A2E0A5D022FEC3
:10019C0002C023FE01C001C0A4D022FA23F801C082
:1001AC00A3D008958FD0C9F0849902C0E89401C0FF
:1001BC00689424F824FC02C025FC01C005C0E1E3CE
:1001CC00F0E083D0A3E088D024FE02C025FE01C05D
:1001DC0001C087D024FA25F801C086D00895B099C3
:1001EC0002C0E89401C0689430F830FC02C031FCC5
:1001FC0001C001C076D030FE02C031FE01C01BC070
:10020C004514A0F474D0E25DFF4F04900BBA6FD08C
:10021C00E65DFF4F049005BAA8EEB3E06FD0E0E0C6
:10022C00E5BBEBBB0BD021D04394EACF541411F4B3
:10023C00E0E4EBBB56D030FA31F80895B39902C024
:10024C00E89401C0689432F832FC02C033FC01C05F
:10025C000BC0B09903C0689431F806C0B69903C0BE
:10026C00689435F801C0F5CF0895B69902C0E894AA
:10027C0001C0689434F834FC02C035FC01C011C0D4
:10028C005524E4E15E1640F4E52DF0E0E052FF4F1A
:10029C00A0E0A0835394F5CF55244424E0E4EBBBB9
:1002AC0020D034FE02C035FE01C001C01AD034FA91
:1002BC0035F80895E8E25E1610F0E0E00895E1E00C
:1002CC0008950895F7DFE030089504900BBAE52DFA
:1002DC00F0E0E052FF4F0895A0835394A9E1B0E001
:1002EC000DC0A9E1B0E00AC0E9E7EBBB0895E42D2D
:1002FC00F0E0E052FF4FE081F0E00895109639F005
:10030C00A8958AEF90E00197F1F71197C9F7089536
:00000001FF
